:020000040000FA
:08000000803102288731FD2F39
:100D2E001630210097000800043020009B009A0125
:100D3E00911004309C00080080302C009C00023082
:100D4E009B0040309A003F3025009E050800703011
:100D5E002100990098012200960121001A1FB82E39
:100D6E00B92EB42E080001303E00A5000F30A600AB
:100D7E001030A7001130A800A9010530AA001030CC
:100D8E00AB000830AC002030AD008030A40008006D
:100D9E0013303C00A0001430A10010303D00A30021
:100DAE001130A500240094012A30950009309200DC
:100DBE0021008E112400951208008631CF2686312F
:100DCE008731492786318631AE2686318631972680
:100DDE0086318631BA2686318631A3268631863112
:100DEE009B2686310800F3002400951AFF2E002F53
:100DFE00482F7308F000F101F035F10DF035F10DCB
:100E0E000130700784008830713D85000008940021
:100E1E007308F000F101F035F10DF035F10D0030F1
:100E2E00700784008830713D85000008950096019A
:100E3E007308F000F101F035F10DF035F10D0230CF
:100E4E00700784008830713D850000089200730899
:100E5E00F000F101F035F10DF035F10D03307007B2
:100E6E0084008830713D85000008F200F20DF20D0D
:100E7E00F20D21000E087206F73972068E0024005C
:100E8E0095160800220090018F018C018D018E01B4
:100E9E000F3021009000FF308C00F9308D00D730DC
:100EAE008E00FF308F00FF3023008F00E4308E0065
:100EBE003F308D00073090003E308C0024008F01B3
:100ECE0090018D018C018E01210095172500900156
:100EDE008C018D018E018F01FF3026008C00FF30BA
:100EEE008D00FF308E00FF308F0007309000FF30F6
:100EFE0027008C00FF308D00FF308E00FF308F00FA
:100F0E000F30900014303C00A10006303D009900D7
:100F1E001030A3003C00A8010F303D009A001130A4
:100F2E00A50013303C00A00008008631E42687316E
:100F3E0000308631FA268731F501F6012400910141
:100F4E00141CAA2FAB2FA72F9101141CAF2FB02F5B
:100F5E00AC2F9101141CB42FB52FB12F0130F50712
:100F6E000030F63D7608803AF40080307402031D9E
:100F7E00C22F08307502031CC52FC62FA52F0B30AC
:100F8E00F4006230890BC92FF40BC92F0032F70120
:100F9E00F80124009101141CD52FD62FD22FFF302B
:100FAE009100141CDB2FDC2FD82F9101141CE02F85
:100FBE00E12FDD2F0130F7070030F83D7808803A39
:100FCE00F40080307402031DEE2F08307702031CEC
:100FDE00F12FF22FD02F1530F400C630890BF52FDC
:100FEE00F40BF52F0032CE2F8031022820008731EE
:0A0FFE009C2F2A340034093400341B
:020000040001F9
:04000E00E43FFF3F8D
:00000001FF
