:020000040000FA
:08000000803102288731FD2F39
:100C58001630210097000800043020009B009A01FC
:100C6800911004309C00080080302C009C00023059
:100C78009B0040309A003F3025009E0508007030E8
:100C88002100990098012200960121001A1F4D2E7B
:100C98004E2E492E080001303E00A5000F30A60058
:100CA8001030A7001130A800A9010530AA001030A3
:100CB800AB000830AC002030AD008030A400080044
:100CC80013303C00A0001430A10010303D00A300F8
:100CD8001130A500240094012330950009309200BA
:100CE80021008E1124009512080086316426863171
:100CF8008631DE26863186314326863186312C269A
:100D0800863186314F2686318631382686318631BE
:100D1800302686310800F3002400951A942E952E6B
:100D2800DD2E7308F000F101F035F10DF035F10D0D
:100D38000130700784008830713D850000089400F8
:100D48007308F000F101F035F10DF035F10D0030C8
:100D5800700784008830713D850000089500960171
:100D68007308F000F101F035F10DF035F10D0230A6
:100D7800700784008830713D850000089200730870
:100D8800F000F101F035F10DF035F10D0330700789
:100D980084008830713D85000008F200F20DF20DE4
:100DA800F20D21000E087206F73972068E00240033
:100DB80095160800220090018F018C018D018E018B
:100DC8000F3021009000FF308C00F9308D00D730B3
:100DD8008E00FF308F00FF3023008F00C4308E005C
:100DE80039308D00073090003E308C0024008F0190
:100DF80090018D018C018E0121009517250090012D
:100E08008C018D018E018F01FF3026008C00FF3090
:100E18008D00FF308E00FF308F0007309000FF30CC
:100E280027008C00FF308D00FF308E00FF308F00D0
:100E38000F30900014303C00A10006303D009900AE
:100E48001030A3003C00A8010F303D009A0011307B
:100E5800A50013303C00A0000800863179268731B0
:100E6800003086318F268731F501F6012400910183
:100E7800141C3F2F402F3C2F9101141C442F452F49
:100E8800412F9101141C492F4A2F462F0130F50795
:100E98000030F63D7608803AF40080307402031D75
:100EA800572F08307502031C5A2F5B2F3A2F153025
:100EB800890B5C2F0000F701F80124009101141C34
:100EC800662F672F632FFF309100141C6C2F6D2F36
:100ED800692F9101141C712F722F6E2FFF30910012
:100EE800141C772F782F742F9101141C7C2F7D2FC1
:100EF800792F9101141C812F822F7E2F9101141CB0
:100F0800862F872F832F9101141C8B2F8C2F882FCE
:100F1800FF309100141C912F922F8E2FFF309100DB
:100F2800141C972F982F942FFF309100141C9D2F7D
:100F38009E2F9A2F9101141CA22FA32F9F2FFF30B1
:100F48009100141CA82FA92FA52F9101141CAD2FB7
:100F5800AE2FAA2FFF309100141CB32FB42FB02F3F
:100F68009101141CB82FB92FB52FFF309100141C14
:100F7800BE2FBF2FBB2FFF309100141CC42FC52FCD
:100F8800C12FFF309100141CCA2FCB2FC72F6430FC
:100F98009100141CD02FD12FCD2FB4309100141CE8
:100FA800D62FD72FD32FFF309100141CDC2FDD2F25
:100FB800D92FFF309100141CE22FE32FDF2FFF30D1
:100FC8009100141CE82FE92FE52F0130F7070030B6
:100FD800F83D7808803AF40080307402031DF62F3B
:100FE80008307702031CF92FFA2F612F5B2F80310D
:100FF800022820008731312F23340034093400348B
:020000040001F9
:04000E00E43FFF3F8D
:00000001FF
